{
  "address": "0x9f7120d8d28aef28ea5f2b5c31f3f18ebb7e6ee3",
  "abi": [
    {
      "inputs": [
        {
          "internalType": "uint256[]",
          "name": "_tokensPerWei",
          "type": "uint256[]"
        },
        {
          "internalType": "contract IERC20MintBurnable",
          "name": "_token",
          "type": "address"
        },
        {
          "internalType": "contract IERC721Mintable",
          "name": "_nft",
          "type": "address"
        },
        {
          "internalType": "address payable",
          "name": "_fundStorage",
          "type": "address"
        },
        {
          "internalType": "uint32",
          "name": "_start",
          "type": "uint32"
        },
        {
          "internalType": "uint32[]",
          "name": "_end",
          "type": "uint32[]"
        },
        {
          "internalType": "uint256",
          "name": "_minWeiPerAccount",
          "type": "uint256"
        },
        {
          "internalType": "uint256",
          "name": "_maxWeiPerAccount",
          "type": "uint256"
        },
        {
          "internalType": "contract IReverseRegistrar",
          "name": "_reverseRegistrar",
          "type": "address"
        },
        {
          "internalType": "address",
          "name": "_ensManager",
          "type": "address"
        }
      ],
      "stateMutability": "nonpayable",
      "type": "constructor"
    },
    {
      "inputs": [],
      "name": "FundStorageReverted",
      "type": "error"
    },
    {
      "inputs": [],
      "name": "FundraiserNotOverYet",
      "type": "error"
    },
    {
      "inputs": [],
      "name": "LessThanMinPerAccount",
      "type": "error"
    },
    {
      "inputs": [],
      "name": "NoFundsAttached",
      "type": "error"
    },
    {
      "inputs": [],
      "name": "NotDuringFundraisingPeriod",
      "type": "error"
    },
    {
      "inputs": [],
      "name": "SurpassMaxPerAccount",
      "type": "error"
    },
    {
      "stateMutability": "payable",
      "type": "fallback"
    },
    {
      "inputs": [],
      "name": "_currentTokensPerWei",
      "outputs": [
        {
          "internalType": "uint256",
          "name": "",
          "type": "uint256"
        }
      ],
      "stateMutability": "view",
      "type": "function"
    },
    {
      "inputs": [
        {
          "internalType": "address",
          "name": "",
          "type": "address"
        }
      ],
      "name": "contributed",
      "outputs": [
        {
          "internalType": "uint256",
          "name": "",
          "type": "uint256"
        }
      ],
      "stateMutability": "view",
      "type": "function"
    },
    {
      "inputs": [
        {
          "internalType": "uint256",
          "name": "",
          "type": "uint256"
        }
      ],
      "name": "end",
      "outputs": [
        {
          "internalType": "uint32",
          "name": "",
          "type": "uint32"
        }
      ],
      "stateMutability": "view",
      "type": "function"
    },
    {
      "inputs": [],
      "name": "fundStorage",
      "outputs": [
        {
          "internalType": "address payable",
          "name": "",
          "type": "address"
        }
      ],
      "stateMutability": "view",
      "type": "function"
    },
    {
      "inputs": [],
      "name": "fundsToStorage",
      "outputs": [],
      "stateMutability": "nonpayable",
      "type": "function"
    },
    {
      "inputs": [],
      "name": "maxWeiPerAccount",
      "outputs": [
        {
          "internalType": "uint256",
          "name": "",
          "type": "uint256"
        }
      ],
      "stateMutability": "view",
      "type": "function"
    },
    {
      "inputs": [],
      "name": "minWeiPerAccount",
      "outputs": [
        {
          "internalType": "uint256",
          "name": "",
          "type": "uint256"
        }
      ],
      "stateMutability": "view",
      "type": "function"
    },
    {
      "inputs": [],
      "name": "nft",
      "outputs": [
        {
          "internalType": "contract IERC721Mintable",
          "name": "",
          "type": "address"
        }
      ],
      "stateMutability": "view",
      "type": "function"
    },
    {
      "inputs": [],
      "name": "start",
      "outputs": [
        {
          "internalType": "uint32",
          "name": "",
          "type": "uint32"
        }
      ],
      "stateMutability": "view",
      "type": "function"
    },
    {
      "inputs": [],
      "name": "token",
      "outputs": [
        {
          "internalType": "contract IERC20MintBurnable",
          "name": "",
          "type": "address"
        }
      ],
      "stateMutability": "view",
      "type": "function"
    },
    {
      "inputs": [
        {
          "internalType": "uint256",
          "name": "",
          "type": "uint256"
        }
      ],
      "name": "tokensPerWei",
      "outputs": [
        {
          "internalType": "uint256",
          "name": "",
          "type": "uint256"
        }
      ],
      "stateMutability": "view",
      "type": "function"
    },
    {
      "stateMutability": "payable",
      "type": "receive"
    }
  ],
  "transactionHash": "0x7ea312a1f7b6267045e1de0e47985c33c36c526857649d3c02568d3f05d7ce8b",
  "args": [
    [
      "30000",
      "27500",
      "25000"
    ],
    "0xBeD54CD7cD1211d18944c5302BC9B62321C2ec48",
    "0xa79cB3800136589d5481B16c363ddee547aF555a",
    "0x44DbB18208bBFd976c3351Db1Fa4C6871d503c0E",
    1701734400,
    [
      1702339200,
      1702944000,
      1704153600
    ],
    "500000000000000000",
    "2000000000000000000",
    "0xA0a1AbcDAe1a2a4A2EF8e9113Ff0e02DD81DC0C6",
    "0x44DbB18208bBFd976c3351Db1Fa4C6871d503c0E"
  ],
  "numDeployments": 1,
  "solcInputHash": "9140ef0161f30a88915cdbea6d3f1090",
  "bytecode": "0x6101406040523480156200001257600080fd5b5060405162000e5e38038062000e5e8339810160408190526200003591620003aa565b89516200004a9060019060208d019062000110565b506001600160a01b03808a1660805288811660a052871660c05263ffffffff861660e05284516200008390600290602088019062000160565b50610100849052610120839052604051630f41a04d60e11b81526001600160a01b038281166004830152831690631e83409a906024016020604051808303816000875af1158015620000d9573d6000803e3d6000fd5b505050506040513d601f19601f82011682018060405250810190620000ff919062000499565b5050505050505050505050620004b3565b8280548282559060005260206000209081019282156200014e579160200282015b828111156200014e57825182559160200191906001019062000131565b506200015c9291506200020c565b5090565b828054828255906000526020600020906007016008900481019282156200014e5791602002820160005b83821115620001d057835183826101000a81548163ffffffff021916908363ffffffff16021790555092602001926004016020816003010492830192600103026200018a565b8015620002025782816101000a81549063ffffffff0219169055600401602081600301049283019260010302620001d0565b50506200015c9291505b5b808211156200015c57600081556001016200020d565b634e487b7160e01b600052604160045260246000fd5b604051601f8201601f191681016001600160401b038111828210171562000264576200026462000223565b604052919050565b60006001600160401b0382111562000288576200028862000223565b5060051b60200190565b600082601f830112620002a457600080fd5b81516020620002bd620002b7836200026c565b62000239565b8083825260208201915060208460051b870101935086841115620002e057600080fd5b602086015b84811015620002fe5780518352918301918301620002e5565b509695505050505050565b80516001600160a01b03811681146200032157600080fd5b919050565b805163ffffffff811681146200032157600080fd5b600082601f8301126200034d57600080fd5b8151602062000360620002b7836200026c565b8083825260208201915060208460051b8701019350868411156200038357600080fd5b602086015b84811015620002fe576200039c8162000326565b835291830191830162000388565b6000806000806000806000806000806101408b8d031215620003cb57600080fd5b8a516001600160401b0380821115620003e357600080fd5b620003f18e838f0162000292565b9b506200040160208e0162000309565b9a506200041160408e0162000309565b99506200042160608e0162000309565b98506200043160808e0162000326565b975060a08d01519150808211156200044857600080fd5b50620004578d828e016200033b565b95505060c08b0151935060e08b01519250620004776101008c0162000309565b9150620004886101208c0162000309565b90509295989b9194979a5092959850565b600060208284031215620004ac57600080fd5b5051919050565b60805160a05160c05160e05161010051610120516109236200053b600039600081816101f201528181610346015261043901526000818161010301526103060152600081816102260152610528015260008181610191015261066601526000818161014501526104730152600081816102a401528181610387015261070b01526109236000f3fe6080604052600436106100a05760003560e01c8063ad1e090111610064578063ad1e0901146101e0578063be9a655514610214578063c436b72b14610248578063daa0e1371461025d578063f6508be614610272578063fc0c546a14610292576100af565b80630ad24528146100b75780632fcafec3146100f157806347ccca0214610133578063769de7d21461017f578063995c5e9d146101b3576100af565b366100af576100ad6102c6565b005b6100ad6102c6565b3480156100c357600080fd5b506100d76100d23660046107fa565b6104ea565b60405163ffffffff90911681526020015b60405180910390f35b3480156100fd57600080fd5b506101257f000000000000000000000000000000000000000000000000000000000000000081565b6040519081526020016100e8565b34801561013f57600080fd5b506101677f000000000000000000000000000000000000000000000000000000000000000081565b6040516001600160a01b0390911681526020016100e8565b34801561018b57600080fd5b506101677f000000000000000000000000000000000000000000000000000000000000000081565b3480156101bf57600080fd5b506101256101ce366004610813565b60006020819052908152604090205481565b3480156101ec57600080fd5b506101257f000000000000000000000000000000000000000000000000000000000000000081565b34801561022057600080fd5b506100d77f000000000000000000000000000000000000000000000000000000000000000081565b34801561025457600080fd5b50610125610524565b34801561026957600080fd5b506100ad6105fe565b34801561027e57600080fd5b5061012561028d3660046107fa565b6107d9565b34801561029e57600080fd5b506101677f000000000000000000000000000000000000000000000000000000000000000081565b346000036102e75760405163580d5e4b60e01b815260040160405180910390fd5b33600090815260208190526040812054610302903490610859565b90507f00000000000000000000000000000000000000000000000000000000000000008110156103445760405162572b0760e61b815260040160405180910390fd5b7f00000000000000000000000000000000000000000000000000000000000000008111156103855760405163084d70b160e21b815260040160405180910390fd5b7f00000000000000000000000000000000000000000000000000000000000000006001600160a01b031663a9059cbb336103bd610524565b6103c79034610872565b6040516001600160e01b031960e085901b1681526001600160a01b03909216600483015260248201526044016020604051808303816000875af1158015610412573d6000803e3d6000fd5b505050506040513d601f19601f820116820180604052508101906104369190610889565b507f000000000000000000000000000000000000000000000000000000000000000081036104d8576040516335313c2160e11b81523360048201527f00000000000000000000000000000000000000000000000000000000000000006001600160a01b031690636a62784290602401600060405180830381600087803b1580156104bf57600080fd5b505af11580156104d3573d6000803e3d6000fd5b505050505b33600090815260208190526040902055565b600281815481106104fa57600080fd5b9060005260206000209060089182820401919006600402915054906101000a900463ffffffff1681565b60007f000000000000000000000000000000000000000000000000000000000000000063ffffffff1642101561056d576040516346ea3b2b60e01b815260040160405180910390fd5b60005b6002548110156105e4576002818154811061058d5761058d6108ab565b6000918252602090912060088204015460079091166004026101000a900463ffffffff164210156105dc57600181815481106105cb576105cb6108ab565b906000526020600020015491505090565b600101610570565b506040516346ea3b2b60e01b815260040160405180910390fd5b6002805461060e906001906108c1565b8154811061061e5761061e6108ab565b6000918252602090912060088204015460079091166004026101000a900463ffffffff1642101561066257604051635ddf2aeb60e01b815260040160405180910390fd5b60007f00000000000000000000000000000000000000000000000000000000000000006001600160a01b03164760405160006040518083038185875af1925050503d80600081146106cf576040519150601f19603f3d011682016040523d82523d6000602084013e6106d4565b606091505b50509050806106f657604051631dd4050760e01b815260040160405180910390fd5b6040516370a0823160e01b81523060048201527f00000000000000000000000000000000000000000000000000000000000000006001600160a01b0316906342966c689082906370a0823190602401602060405180830381865afa158015610762573d6000803e3d6000fd5b505050506040513d601f19601f8201168201806040525081019061078691906108d4565b6040518263ffffffff1660e01b81526004016107a491815260200190565b600060405180830381600087803b1580156107be57600080fd5b505af11580156107d2573d6000803e3d6000fd5b5050505050565b600181815481106107e957600080fd5b600091825260209091200154905081565b60006020828403121561080c57600080fd5b5035919050565b60006020828403121561082557600080fd5b81356001600160a01b038116811461083c57600080fd5b9392505050565b634e487b7160e01b600052601160045260246000fd5b8082018082111561086c5761086c610843565b92915050565b808202811582820484141761086c5761086c610843565b60006020828403121561089b57600080fd5b8151801515811461083c57600080fd5b634e487b7160e01b600052603260045260246000fd5b8181038181111561086c5761086c610843565b6000602082840312156108e657600080fd5b505191905056fea26469706673582212200deebe336ad42afe5c0fba425f835c546b77b62e8eb66f64f1a98286ca95ecba64736f6c63430008170033",
  "devdoc": {
    "kind": "dev",
    "methods": {},
    "version": 1
  },
  "userdoc": {
    "kind": "user",
    "methods": {},
    "version": 1
  },
  "storageLayout": {
    "storage": [
      {
        "astId": 9875,
        "contract": "contracts/Fundraiser.sol:Fundraiser",
        "label": "contributed",
        "offset": 0,
        "slot": "0",
        "type": "t_mapping(t_address,t_uint256)"
      },
      {
        "astId": 9878,
        "contract": "contracts/Fundraiser.sol:Fundraiser",
        "label": "tokensPerWei",
        "offset": 0,
        "slot": "1",
        "type": "t_array(t_uint256)dyn_storage"
      },
      {
        "astId": 9891,
        "contract": "contracts/Fundraiser.sol:Fundraiser",
        "label": "end",
        "offset": 0,
        "slot": "2",
        "type": "t_array(t_uint32)dyn_storage"
      }
    ],
    "types": {
      "t_address": {
        "encoding": "inplace",
        "label": "address",
        "numberOfBytes": "20"
      },
      "t_array(t_uint256)dyn_storage": {
        "base": "t_uint256",
        "encoding": "dynamic_array",
        "label": "uint256[]",
        "numberOfBytes": "32"
      },
      "t_array(t_uint32)dyn_storage": {
        "base": "t_uint32",
        "encoding": "dynamic_array",
        "label": "uint32[]",
        "numberOfBytes": "32"
      },
      "t_mapping(t_address,t_uint256)": {
        "encoding": "mapping",
        "key": "t_address",
        "label": "mapping(address => uint256)",
        "numberOfBytes": "32",
        "value": "t_uint256"
      },
      "t_uint256": {
        "encoding": "inplace",
        "label": "uint256",
        "numberOfBytes": "32"
      },
      "t_uint32": {
        "encoding": "inplace",
        "label": "uint32",
        "numberOfBytes": "4"
      }
    }
  }
}