{
  "address": "0xa79cB3800136589d5481B16c363ddee547aF555a",
  "abi": [
    {
      "inputs": [
        {
          "internalType": "string",
          "name": "_name",
          "type": "string"
        },
        {
          "internalType": "string",
          "name": "_symbol",
          "type": "string"
        },
        {
          "internalType": "string",
          "name": "_metadataUri",
          "type": "string"
        },
        {
          "internalType": "address",
          "name": "_admin",
          "type": "address"
        },
        {
          "internalType": "contract IReverseRegistrar",
          "name": "_reverseRegistrar",
          "type": "address"
        }
      ],
      "stateMutability": "nonpayable",
      "type": "constructor"
    },
    {
      "inputs": [],
      "name": "AccessControlBadConfirmation",
      "type": "error"
    },
    {
      "inputs": [
        {
          "internalType": "address",
          "name": "account",
          "type": "address"
        },
        {
          "internalType": "bytes32",
          "name": "neededRole",
          "type": "bytes32"
        }
      ],
      "name": "AccessControlUnauthorizedAccount",
      "type": "error"
    },
    {
      "inputs": [
        {
          "internalType": "address",
          "name": "sender",
          "type": "address"
        },
        {
          "internalType": "uint256",
          "name": "tokenId",
          "type": "uint256"
        },
        {
          "internalType": "address",
          "name": "owner",
          "type": "address"
        }
      ],
      "name": "ERC721IncorrectOwner",
      "type": "error"
    },
    {
      "inputs": [
        {
          "internalType": "address",
          "name": "operator",
          "type": "address"
        },
        {
          "internalType": "uint256",
          "name": "tokenId",
          "type": "uint256"
        }
      ],
      "name": "ERC721InsufficientApproval",
      "type": "error"
    },
    {
      "inputs": [
        {
          "internalType": "address",
          "name": "approver",
          "type": "address"
        }
      ],
      "name": "ERC721InvalidApprover",
      "type": "error"
    },
    {
      "inputs": [
        {
          "internalType": "address",
          "name": "operator",
          "type": "address"
        }
      ],
      "name": "ERC721InvalidOperator",
      "type": "error"
    },
    {
      "inputs": [
        {
          "internalType": "address",
          "name": "owner",
          "type": "address"
        }
      ],
      "name": "ERC721InvalidOwner",
      "type": "error"
    },
    {
      "inputs": [
        {
          "internalType": "address",
          "name": "receiver",
          "type": "address"
        }
      ],
      "name": "ERC721InvalidReceiver",
      "type": "error"
    },
    {
      "inputs": [
        {
          "internalType": "address",
          "name": "sender",
          "type": "address"
        }
      ],
      "name": "ERC721InvalidSender",
      "type": "error"
    },
    {
      "inputs": [
        {
          "internalType": "uint256",
          "name": "tokenId",
          "type": "uint256"
        }
      ],
      "name": "ERC721NonexistentToken",
      "type": "error"
    },
    {
      "inputs": [],
      "name": "NotTransferable",
      "type": "error"
    },
    {
      "anonymous": false,
      "inputs": [
        {
          "indexed": true,
          "internalType": "address",
          "name": "owner",
          "type": "address"
        },
        {
          "indexed": true,
          "internalType": "address",
          "name": "approved",
          "type": "address"
        },
        {
          "indexed": true,
          "internalType": "uint256",
          "name": "tokenId",
          "type": "uint256"
        }
      ],
      "name": "Approval",
      "type": "event"
    },
    {
      "anonymous": false,
      "inputs": [
        {
          "indexed": true,
          "internalType": "address",
          "name": "owner",
          "type": "address"
        },
        {
          "indexed": true,
          "internalType": "address",
          "name": "operator",
          "type": "address"
        },
        {
          "indexed": false,
          "internalType": "bool",
          "name": "approved",
          "type": "bool"
        }
      ],
      "name": "ApprovalForAll",
      "type": "event"
    },
    {
      "anonymous": false,
      "inputs": [
        {
          "indexed": true,
          "internalType": "bytes32",
          "name": "role",
          "type": "bytes32"
        },
        {
          "indexed": true,
          "internalType": "bytes32",
          "name": "previousAdminRole",
          "type": "bytes32"
        },
        {
          "indexed": true,
          "internalType": "bytes32",
          "name": "newAdminRole",
          "type": "bytes32"
        }
      ],
      "name": "RoleAdminChanged",
      "type": "event"
    },
    {
      "anonymous": false,
      "inputs": [
        {
          "indexed": true,
          "internalType": "bytes32",
          "name": "role",
          "type": "bytes32"
        },
        {
          "indexed": true,
          "internalType": "address",
          "name": "account",
          "type": "address"
        },
        {
          "indexed": true,
          "internalType": "address",
          "name": "sender",
          "type": "address"
        }
      ],
      "name": "RoleGranted",
      "type": "event"
    },
    {
      "anonymous": false,
      "inputs": [
        {
          "indexed": true,
          "internalType": "bytes32",
          "name": "role",
          "type": "bytes32"
        },
        {
          "indexed": true,
          "internalType": "address",
          "name": "account",
          "type": "address"
        },
        {
          "indexed": true,
          "internalType": "address",
          "name": "sender",
          "type": "address"
        }
      ],
      "name": "RoleRevoked",
      "type": "event"
    },
    {
      "anonymous": false,
      "inputs": [
        {
          "indexed": true,
          "internalType": "address",
          "name": "from",
          "type": "address"
        },
        {
          "indexed": true,
          "internalType": "address",
          "name": "to",
          "type": "address"
        },
        {
          "indexed": true,
          "internalType": "uint256",
          "name": "tokenId",
          "type": "uint256"
        }
      ],
      "name": "Transfer",
      "type": "event"
    },
    {
      "inputs": [],
      "name": "DEFAULT_ADMIN_ROLE",
      "outputs": [
        {
          "internalType": "bytes32",
          "name": "",
          "type": "bytes32"
        }
      ],
      "stateMutability": "view",
      "type": "function"
    },
    {
      "inputs": [],
      "name": "MINT_ROLE",
      "outputs": [
        {
          "internalType": "bytes32",
          "name": "",
          "type": "bytes32"
        }
      ],
      "stateMutability": "view",
      "type": "function"
    },
    {
      "inputs": [
        {
          "internalType": "address",
          "name": "to",
          "type": "address"
        },
        {
          "internalType": "uint256",
          "name": "tokenId",
          "type": "uint256"
        }
      ],
      "name": "approve",
      "outputs": [],
      "stateMutability": "nonpayable",
      "type": "function"
    },
    {
      "inputs": [
        {
          "internalType": "address",
          "name": "owner",
          "type": "address"
        }
      ],
      "name": "balanceOf",
      "outputs": [
        {
          "internalType": "uint256",
          "name": "",
          "type": "uint256"
        }
      ],
      "stateMutability": "view",
      "type": "function"
    },
    {
      "inputs": [
        {
          "internalType": "uint256",
          "name": "tokenId",
          "type": "uint256"
        }
      ],
      "name": "getApproved",
      "outputs": [
        {
          "internalType": "address",
          "name": "",
          "type": "address"
        }
      ],
      "stateMutability": "view",
      "type": "function"
    },
    {
      "inputs": [
        {
          "internalType": "bytes32",
          "name": "role",
          "type": "bytes32"
        }
      ],
      "name": "getRoleAdmin",
      "outputs": [
        {
          "internalType": "bytes32",
          "name": "",
          "type": "bytes32"
        }
      ],
      "stateMutability": "view",
      "type": "function"
    },
    {
      "inputs": [
        {
          "internalType": "bytes32",
          "name": "role",
          "type": "bytes32"
        },
        {
          "internalType": "address",
          "name": "account",
          "type": "address"
        }
      ],
      "name": "grantRole",
      "outputs": [],
      "stateMutability": "nonpayable",
      "type": "function"
    },
    {
      "inputs": [
        {
          "internalType": "bytes32",
          "name": "role",
          "type": "bytes32"
        },
        {
          "internalType": "address",
          "name": "account",
          "type": "address"
        }
      ],
      "name": "hasRole",
      "outputs": [
        {
          "internalType": "bool",
          "name": "",
          "type": "bool"
        }
      ],
      "stateMutability": "view",
      "type": "function"
    },
    {
      "inputs": [
        {
          "internalType": "address",
          "name": "owner",
          "type": "address"
        },
        {
          "internalType": "address",
          "name": "operator",
          "type": "address"
        }
      ],
      "name": "isApprovedForAll",
      "outputs": [
        {
          "internalType": "bool",
          "name": "",
          "type": "bool"
        }
      ],
      "stateMutability": "view",
      "type": "function"
    },
    {
      "inputs": [],
      "name": "metadataUri",
      "outputs": [
        {
          "internalType": "string",
          "name": "",
          "type": "string"
        }
      ],
      "stateMutability": "view",
      "type": "function"
    },
    {
      "inputs": [
        {
          "internalType": "address",
          "name": "account",
          "type": "address"
        }
      ],
      "name": "mint",
      "outputs": [],
      "stateMutability": "nonpayable",
      "type": "function"
    },
    {
      "inputs": [],
      "name": "mintCounter",
      "outputs": [
        {
          "internalType": "uint256",
          "name": "",
          "type": "uint256"
        }
      ],
      "stateMutability": "view",
      "type": "function"
    },
    {
      "inputs": [],
      "name": "name",
      "outputs": [
        {
          "internalType": "string",
          "name": "",
          "type": "string"
        }
      ],
      "stateMutability": "view",
      "type": "function"
    },
    {
      "inputs": [
        {
          "internalType": "uint256",
          "name": "tokenId",
          "type": "uint256"
        }
      ],
      "name": "ownerOf",
      "outputs": [
        {
          "internalType": "address",
          "name": "",
          "type": "address"
        }
      ],
      "stateMutability": "view",
      "type": "function"
    },
    {
      "inputs": [
        {
          "internalType": "bytes32",
          "name": "role",
          "type": "bytes32"
        },
        {
          "internalType": "address",
          "name": "callerConfirmation",
          "type": "address"
        }
      ],
      "name": "renounceRole",
      "outputs": [],
      "stateMutability": "nonpayable",
      "type": "function"
    },
    {
      "inputs": [
        {
          "internalType": "bytes32",
          "name": "role",
          "type": "bytes32"
        },
        {
          "internalType": "address",
          "name": "account",
          "type": "address"
        }
      ],
      "name": "revokeRole",
      "outputs": [],
      "stateMutability": "nonpayable",
      "type": "function"
    },
    {
      "inputs": [
        {
          "internalType": "address",
          "name": "from",
          "type": "address"
        },
        {
          "internalType": "address",
          "name": "to",
          "type": "address"
        },
        {
          "internalType": "uint256",
          "name": "tokenId",
          "type": "uint256"
        }
      ],
      "name": "safeTransferFrom",
      "outputs": [],
      "stateMutability": "nonpayable",
      "type": "function"
    },
    {
      "inputs": [
        {
          "internalType": "address",
          "name": "from",
          "type": "address"
        },
        {
          "internalType": "address",
          "name": "to",
          "type": "address"
        },
        {
          "internalType": "uint256",
          "name": "tokenId",
          "type": "uint256"
        },
        {
          "internalType": "bytes",
          "name": "data",
          "type": "bytes"
        }
      ],
      "name": "safeTransferFrom",
      "outputs": [],
      "stateMutability": "nonpayable",
      "type": "function"
    },
    {
      "inputs": [
        {
          "internalType": "address",
          "name": "operator",
          "type": "address"
        },
        {
          "internalType": "bool",
          "name": "approved",
          "type": "bool"
        }
      ],
      "name": "setApprovalForAll",
      "outputs": [],
      "stateMutability": "nonpayable",
      "type": "function"
    },
    {
      "inputs": [
        {
          "internalType": "bytes4",
          "name": "interfaceId",
          "type": "bytes4"
        }
      ],
      "name": "supportsInterface",
      "outputs": [
        {
          "internalType": "bool",
          "name": "",
          "type": "bool"
        }
      ],
      "stateMutability": "view",
      "type": "function"
    },
    {
      "inputs": [],
      "name": "symbol",
      "outputs": [
        {
          "internalType": "string",
          "name": "",
          "type": "string"
        }
      ],
      "stateMutability": "view",
      "type": "function"
    },
    {
      "inputs": [
        {
          "internalType": "uint256",
          "name": "",
          "type": "uint256"
        }
      ],
      "name": "tokenURI",
      "outputs": [
        {
          "internalType": "string",
          "name": "",
          "type": "string"
        }
      ],
      "stateMutability": "view",
      "type": "function"
    },
    {
      "inputs": [
        {
          "internalType": "address",
          "name": "from",
          "type": "address"
        },
        {
          "internalType": "address",
          "name": "to",
          "type": "address"
        },
        {
          "internalType": "uint256",
          "name": "tokenId",
          "type": "uint256"
        }
      ],
      "name": "transferFrom",
      "outputs": [],
      "stateMutability": "nonpayable",
      "type": "function"
    },
    {
      "inputs": [
        {
          "internalType": "string",
          "name": "_metadataUri",
          "type": "string"
        }
      ],
      "name": "updateMetadata",
      "outputs": [],
      "stateMutability": "nonpayable",
      "type": "function"
    }
  ],
  "transactionHash": "0xbcd3d78b5f27cb174d2e36e09be569b5847ad05f414c10b0c9b5315485434710",
  "args": [
    "Genesis Validator Pass",
    "GVP",
    "https://erc721.openmesh.network/metadata/gvp.json",
    "0x44DbB18208bBFd976c3351Db1Fa4C6871d503c0E",
    "0xA0a1AbcDAe1a2a4A2EF8e9113Ff0e02DD81DC0C6"
  ],
  "numDeployments": 1,
  "solcInputHash": "9140ef0161f30a88915cdbea6d3f1090",
  "bytecode": "0x60806040523480156200001157600080fd5b506040516200192238038062001922833981016040819052620000349162000284565b84846000620000448382620003d3565b506001620000538282620003d3565b50600791506200006690508482620003d3565b5062000074600083620000f0565b50604051630f41a04d60e11b81526001600160a01b038381166004830152821690631e83409a906024016020604051808303816000875af1158015620000be573d6000803e3d6000fd5b505050506040513d601f19601f82011682018060405250810190620000e491906200049f565b505050505050620004b9565b60008281526006602090815260408083206001600160a01b038516845290915281205460ff16620001995760008381526006602090815260408083206001600160a01b03861684529091529020805460ff19166001179055620001503390565b6001600160a01b0316826001600160a01b0316847f2f8788117e7eff1d82e926ec794901d17c78024a50270940304540a733656f0d60405160405180910390a45060016200019d565b5060005b92915050565b634e487b7160e01b600052604160045260246000fd5b600082601f830112620001cb57600080fd5b81516001600160401b0380821115620001e857620001e8620001a3565b604051601f8301601f19908116603f01168101908282118183101715620002135762000213620001a3565b81604052838152602092508660208588010111156200023157600080fd5b600091505b8382101562000255578582018301518183018401529082019062000236565b6000602085830101528094505050505092915050565b6001600160a01b03811681146200028157600080fd5b50565b600080600080600060a086880312156200029d57600080fd5b85516001600160401b0380821115620002b557600080fd5b620002c389838a01620001b9565b96506020880151915080821115620002da57600080fd5b620002e889838a01620001b9565b95506040880151915080821115620002ff57600080fd5b506200030e88828901620001b9565b935050606086015162000321816200026b565b608087015190925062000334816200026b565b809150509295509295909350565b600181811c908216806200035757607f821691505b6020821081036200037857634e487b7160e01b600052602260045260246000fd5b50919050565b601f821115620003ce576000816000526020600020601f850160051c81016020861015620003a95750805b601f850160051c820191505b81811015620003ca57828155600101620003b5565b5050505b505050565b81516001600160401b03811115620003ef57620003ef620001a3565b620004078162000400845462000342565b846200037e565b602080601f8311600181146200043f5760008415620004265750858301515b600019600386901b1c1916600185901b178555620003ca565b600085815260208120601f198616915b8281101562000470578886015182559484019460019091019084016200044f565b50858210156200048f5787850151600019600388901b60f8161c191681555b5050505050600190811b01905550565b600060208284031215620004b257600080fd5b5051919050565b61145980620004c96000396000f3fe608060405234801561001057600080fd5b50600436106101585760003560e01c806370a08231116100c3578063a22cb4651161007c578063a22cb465146102d7578063b88d4fde146102ea578063c87b56dd146102fd578063d547741f14610310578063e985e9c514610323578063e9a9c8501461033657600080fd5b806370a082311461028657806377a4d55914610299578063918b5be1146102a157806391d14854146102b457806395d89b41146102c7578063a217fddf146102cf57600080fd5b80632f2ff15d116101155780632f2ff15d1461021e57806336568abe1461023157806342842e0e1461024457806346aa52ce146102575780636352211e146102605780636a6278421461027357600080fd5b806301ffc9a71461015d57806306fdde0314610185578063081812fc1461019a578063095ea7b3146101c557806323b872dd146101da578063248a9ca3146101ed575b600080fd5b61017061016b366004610f2f565b61035d565b60405190151581526020015b60405180910390f35b61018d610397565b60405161017c9190610f99565b6101ad6101a8366004610fac565b610429565b6040516001600160a01b03909116815260200161017c565b6101d86101d3366004610fe1565b610452565b005b6101d86101e836600461100b565b610461565b6102106101fb366004610fac565b60009081526006602052604090206001015490565b60405190815260200161017c565b6101d861022c366004611047565b610499565b6101d861023f366004611047565b6104c4565b6101d861025236600461100b565b6104f7565b61021060085481565b6101ad61026e366004610fac565b610512565b6101d8610281366004611073565b61051d565b610210610294366004611073565b610566565b61018d6105b3565b6101d86102af36600461108e565b610641565b6101706102c2366004611047565b610659565b61018d610684565b610210600081565b6101d86102e5366004611100565b610693565b6101d86102f8366004611152565b61069e565b61018d61030b366004610fac565b6106b5565b6101d861031e366004611047565b610749565b61017061033136600461122e565b61076e565b6102107ffdf81848136595c31bb5f76217767372bc4bf906663038eb38381131ea27ecba81565b60006001600160e01b031982166335313c2160e11b148061038257506103828261079c565b806103915750610391826107ec565b92915050565b6060600080546103a690611258565b80601f01602080910402602001604051908101604052809291908181526020018280546103d290611258565b801561041f5780601f106103f45761010080835404028352916020019161041f565b820191906000526020600020905b81548152906001019060200180831161040257829003601f168201915b5050505050905090565b600061043482610811565b506000828152600460205260409020546001600160a01b0316610391565b61045d82823361084a565b5050565b6001600160a01b038316156104895760405163dc8d8db760e01b815260040160405180910390fd5b610494838383610857565b505050565b6000828152600660205260409020600101546104b4816108dc565b6104be83836108e9565b50505050565b6001600160a01b03811633146104ed5760405163334bd91960e11b815260040160405180910390fd5b610494828261097d565b6104948383836040518060200160405280600081525061069e565b600061039182610811565b7ffdf81848136595c31bb5f76217767372bc4bf906663038eb38381131ea27ecba610547816108dc565b6008805461045d91849190600061055d83611292565b919050556109ea565b60006001600160a01b038216610597576040516322718ad960e21b8152600060048201526024015b60405180910390fd5b506001600160a01b031660009081526003602052604090205490565b600780546105c090611258565b80601f01602080910402602001604051908101604052809291908181526020018280546105ec90611258565b80156106395780601f1061060e57610100808354040283529160200191610639565b820191906000526020600020905b81548152906001019060200180831161061c57829003601f168201915b505050505081565b600061064c816108dc565b60076104be838583611309565b60009182526006602090815260408084206001600160a01b0393909316845291905290205460ff1690565b6060600180546103a690611258565b61045d338383610a4f565b6106a9848484610461565b6104be84848484610aee565b6060600780546106c490611258565b80601f01602080910402602001604051908101604052809291908181526020018280546106f090611258565b801561073d5780601f106107125761010080835404028352916020019161073d565b820191906000526020600020905b81548152906001019060200180831161072057829003601f168201915b50505050509050919050565b600082815260066020526040902060010154610764816108dc565b6104be838361097d565b6001600160a01b03918216600090815260056020908152604080832093909416825291909152205460ff1690565b60006001600160e01b031982166380ac58cd60e01b14806107cd57506001600160e01b03198216635b5e139f60e01b145b8061039157506301ffc9a760e01b6001600160e01b0319831614610391565b60006001600160e01b03198216637965db0b60e01b148061039157506103918261079c565b6000818152600260205260408120546001600160a01b03168061039157604051637e27328960e01b81526004810184905260240161058e565b6104948383836001610c17565b6001600160a01b03821661088157604051633250574960e11b81526000600482015260240161058e565b600061088e838333610d1d565b9050836001600160a01b0316816001600160a01b0316146104be576040516364283d7b60e01b81526001600160a01b038086166004830152602482018490528216604482015260640161058e565b6108e68133610e16565b50565b60006108f58383610659565b6109755760008381526006602090815260408083206001600160a01b03861684529091529020805460ff1916600117905561092d3390565b6001600160a01b0316826001600160a01b0316847f2f8788117e7eff1d82e926ec794901d17c78024a50270940304540a733656f0d60405160405180910390a4506001610391565b506000610391565b60006109898383610659565b156109755760008381526006602090815260408083206001600160a01b0386168085529252808320805460ff1916905551339286917ff6391f5c32d9c69d2a47ea670b442974b53935d1edc7fd64eb21e047a839171b9190a4506001610391565b6001600160a01b038216610a1457604051633250574960e11b81526000600482015260240161058e565b6000610a2283836000610d1d565b90506001600160a01b03811615610494576040516339e3563760e11b81526000600482015260240161058e565b6001600160a01b038216610a8157604051630b61174360e31b81526001600160a01b038316600482015260240161058e565b6001600160a01b03838116600081815260056020908152604080832094871680845294825291829020805460ff191686151590811790915591519182527f17307eab39ab6107e8899845ad3d59bd9653f200f220920489ca2b5937696c31910160405180910390a3505050565b6001600160a01b0383163b156104be57604051630a85bd0160e11b81526001600160a01b0384169063150b7a0290610b309033908890879087906004016113c9565b6020604051808303816000875af1925050508015610b6b575060408051601f3d908101601f19168201909252610b6891810190611406565b60015b610bd4573d808015610b99576040519150601f19603f3d011682016040523d82523d6000602084013e610b9e565b606091505b508051600003610bcc57604051633250574960e11b81526001600160a01b038516600482015260240161058e565b805181602001fd5b6001600160e01b03198116630a85bd0160e11b14610c1057604051633250574960e11b81526001600160a01b038516600482015260240161058e565b5050505050565b8080610c2b57506001600160a01b03821615155b15610ced576000610c3b84610811565b90506001600160a01b03831615801590610c675750826001600160a01b0316816001600160a01b031614155b8015610c7a5750610c78818461076e565b155b15610ca35760405163a9fbf51f60e01b81526001600160a01b038416600482015260240161058e565b8115610ceb5783856001600160a01b0316826001600160a01b03167f8c5be1e5ebec7d5bd14f71427d1e84f3dd0314c0f7b2291e5b200ac8c7c3b92560405160405180910390a45b505b5050600090815260046020526040902080546001600160a01b0319166001600160a01b0392909216919091179055565b6000828152600260205260408120546001600160a01b0390811690831615610d4a57610d4a818486610e4f565b6001600160a01b03811615610d8857610d67600085600080610c17565b6001600160a01b038116600090815260036020526040902080546000190190555b6001600160a01b03851615610db7576001600160a01b0385166000908152600360205260409020805460010190555b60008481526002602052604080822080546001600160a01b0319166001600160a01b0389811691821790925591518793918516917fddf252ad1be2c89b69c2b068fc378daa952ba7f163c4a11628f55a4df523b3ef91a4949350505050565b610e208282610659565b61045d5760405163e2517d3f60e01b81526001600160a01b03821660048201526024810183905260440161058e565b610e5a838383610eb3565b610494576001600160a01b038316610e8857604051637e27328960e01b81526004810182905260240161058e565b60405163177e802f60e01b81526001600160a01b03831660048201526024810182905260440161058e565b60006001600160a01b03831615801590610f115750826001600160a01b0316846001600160a01b03161480610eed5750610eed848461076e565b80610f1157506000828152600460205260409020546001600160a01b038481169116145b949350505050565b6001600160e01b0319811681146108e657600080fd5b600060208284031215610f4157600080fd5b8135610f4c81610f19565b9392505050565b6000815180845260005b81811015610f7957602081850181015186830182015201610f5d565b506000602082860101526020601f19601f83011685010191505092915050565b602081526000610f4c6020830184610f53565b600060208284031215610fbe57600080fd5b5035919050565b80356001600160a01b0381168114610fdc57600080fd5b919050565b60008060408385031215610ff457600080fd5b610ffd83610fc5565b946020939093013593505050565b60008060006060848603121561102057600080fd5b61102984610fc5565b925061103760208501610fc5565b9150604084013590509250925092565b6000806040838503121561105a57600080fd5b8235915061106a60208401610fc5565b90509250929050565b60006020828403121561108557600080fd5b610f4c82610fc5565b600080602083850312156110a157600080fd5b823567ffffffffffffffff808211156110b957600080fd5b818501915085601f8301126110cd57600080fd5b8135818111156110dc57600080fd5b8660208285010111156110ee57600080fd5b60209290920196919550909350505050565b6000806040838503121561111357600080fd5b61111c83610fc5565b91506020830135801515811461113157600080fd5b809150509250929050565b634e487b7160e01b600052604160045260246000fd5b6000806000806080858703121561116857600080fd5b61117185610fc5565b935061117f60208601610fc5565b925060408501359150606085013567ffffffffffffffff808211156111a357600080fd5b818701915087601f8301126111b757600080fd5b8135818111156111c9576111c961113c565b604051601f8201601f19908116603f011681019083821181831017156111f1576111f161113c565b816040528281528a602084870101111561120a57600080fd5b82602086016020830137600060208483010152809550505050505092959194509250565b6000806040838503121561124157600080fd5b61124a83610fc5565b915061106a60208401610fc5565b600181811c9082168061126c57607f821691505b60208210810361128c57634e487b7160e01b600052602260045260246000fd5b50919050565b6000600182016112b257634e487b7160e01b600052601160045260246000fd5b5060010190565b601f821115610494576000816000526020600020601f850160051c810160208610156112e25750805b601f850160051c820191505b81811015611301578281556001016112ee565b505050505050565b67ffffffffffffffff8311156113215761132161113c565b6113358361132f8354611258565b836112b9565b6000601f84116001811461136957600085156113515750838201355b600019600387901b1c1916600186901b178355610c10565b600083815260209020601f19861690835b8281101561139a578685013582556020948501946001909201910161137a565b50868210156113b75760001960f88860031b161c19848701351681555b505060018560011b0183555050505050565b6001600160a01b03858116825284166020820152604081018390526080606082018190526000906113fc90830184610f53565b9695505050505050565b60006020828403121561141857600080fd5b8151610f4c81610f1956fea2646970667358221220d8564ce6a2dd76cfdbf43b70a12467c6de1ff3c958297ab8e254c237d543909f64736f6c63430008170033",
  "devdoc": {
    "errors": {
      "AccessControlBadConfirmation()": [
        {
          "details": "The caller of a function is not the expected one. NOTE: Don't confuse with {AccessControlUnauthorizedAccount}."
        }
      ],
      "AccessControlUnauthorizedAccount(address,bytes32)": [
        {
          "details": "The `account` is missing a role."
        }
      ],
      "ERC721IncorrectOwner(address,uint256,address)": [
        {
          "details": "Indicates an error related to the ownership over a particular token. Used in transfers.",
          "params": {
            "owner": "Address of the current owner of a token.",
            "sender": "Address whose tokens are being transferred.",
            "tokenId": "Identifier number of a token."
          }
        }
      ],
      "ERC721InsufficientApproval(address,uint256)": [
        {
          "details": "Indicates a failure with the `operator`s approval. Used in transfers.",
          "params": {
            "operator": "Address that may be allowed to operate on tokens without being their owner.",
            "tokenId": "Identifier number of a token."
          }
        }
      ],
      "ERC721InvalidApprover(address)": [
        {
          "details": "Indicates a failure with the `approver` of a token to be approved. Used in approvals.",
          "params": {
            "approver": "Address initiating an approval operation."
          }
        }
      ],
      "ERC721InvalidOperator(address)": [
        {
          "details": "Indicates a failure with the `operator` to be approved. Used in approvals.",
          "params": {
            "operator": "Address that may be allowed to operate on tokens without being their owner."
          }
        }
      ],
      "ERC721InvalidOwner(address)": [
        {
          "details": "Indicates that an address can't be an owner. For example, `address(0)` is a forbidden owner in EIP-20. Used in balance queries.",
          "params": {
            "owner": "Address of the current owner of a token."
          }
        }
      ],
      "ERC721InvalidReceiver(address)": [
        {
          "details": "Indicates a failure with the token `receiver`. Used in transfers.",
          "params": {
            "receiver": "Address to which tokens are being transferred."
          }
        }
      ],
      "ERC721InvalidSender(address)": [
        {
          "details": "Indicates a failure with the token `sender`. Used in transfers.",
          "params": {
            "sender": "Address whose tokens are being transferred."
          }
        }
      ],
      "ERC721NonexistentToken(uint256)": [
        {
          "details": "Indicates a `tokenId` whose `owner` is the zero address.",
          "params": {
            "tokenId": "Identifier number of a token."
          }
        }
      ]
    },
    "events": {
      "Approval(address,address,uint256)": {
        "details": "Emitted when `owner` enables `approved` to manage the `tokenId` token."
      },
      "ApprovalForAll(address,address,bool)": {
        "details": "Emitted when `owner` enables or disables (`approved`) `operator` to manage all of its assets."
      },
      "RoleAdminChanged(bytes32,bytes32,bytes32)": {
        "details": "Emitted when `newAdminRole` is set as ``role``'s admin role, replacing `previousAdminRole` `DEFAULT_ADMIN_ROLE` is the starting admin for all roles, despite {RoleAdminChanged} not being emitted signaling this."
      },
      "RoleGranted(bytes32,address,address)": {
        "details": "Emitted when `account` is granted `role`. `sender` is the account that originated the contract call, an admin role bearer except when using {AccessControl-_setupRole}."
      },
      "RoleRevoked(bytes32,address,address)": {
        "details": "Emitted when `account` is revoked `role`. `sender` is the account that originated the contract call:   - if using `revokeRole`, it is the admin role bearer   - if using `renounceRole`, it is the role bearer (i.e. `account`)"
      },
      "Transfer(address,address,uint256)": {
        "details": "Emitted when `tokenId` token is transferred from `from` to `to`."
      }
    },
    "kind": "dev",
    "methods": {
      "approve(address,uint256)": {
        "details": "See {IERC721-approve}."
      },
      "balanceOf(address)": {
        "details": "See {IERC721-balanceOf}."
      },
      "getApproved(uint256)": {
        "details": "See {IERC721-getApproved}."
      },
      "getRoleAdmin(bytes32)": {
        "details": "Returns the admin role that controls `role`. See {grantRole} and {revokeRole}. To change a role's admin, use {_setRoleAdmin}."
      },
      "grantRole(bytes32,address)": {
        "details": "Grants `role` to `account`. If `account` had not been already granted `role`, emits a {RoleGranted} event. Requirements: - the caller must have ``role``'s admin role. May emit a {RoleGranted} event."
      },
      "hasRole(bytes32,address)": {
        "details": "Returns `true` if `account` has been granted `role`."
      },
      "isApprovedForAll(address,address)": {
        "details": "See {IERC721-isApprovedForAll}."
      },
      "mint(address)": {
        "details": "Should be locked behind a permission.",
        "params": {
          "account": "The account that will receive the minted token."
        }
      },
      "name()": {
        "details": "See {IERC721Metadata-name}."
      },
      "ownerOf(uint256)": {
        "details": "See {IERC721-ownerOf}."
      },
      "renounceRole(bytes32,address)": {
        "details": "Revokes `role` from the calling account. Roles are often managed via {grantRole} and {revokeRole}: this function's purpose is to provide a mechanism for accounts to lose their privileges if they are compromised (such as when a trusted device is misplaced). If the calling account had been revoked `role`, emits a {RoleRevoked} event. Requirements: - the caller must be `callerConfirmation`. May emit a {RoleRevoked} event."
      },
      "revokeRole(bytes32,address)": {
        "details": "Revokes `role` from `account`. If `account` had been granted `role`, emits a {RoleRevoked} event. Requirements: - the caller must have ``role``'s admin role. May emit a {RoleRevoked} event."
      },
      "safeTransferFrom(address,address,uint256)": {
        "details": "See {IERC721-safeTransferFrom}."
      },
      "safeTransferFrom(address,address,uint256,bytes)": {
        "details": "See {IERC721-safeTransferFrom}."
      },
      "setApprovalForAll(address,bool)": {
        "details": "See {IERC721-setApprovalForAll}."
      },
      "symbol()": {
        "details": "See {IERC721Metadata-symbol}."
      }
    },
    "version": 1
  },
  "userdoc": {
    "kind": "user",
    "methods": {
      "mint(address)": {
        "notice": "Mints an ERC721 token to a specific account."
      }
    },
    "version": 1
  },
  "storageLayout": {
    "storage": [
      {
        "astId": 2190,
        "contract": "contracts/ValidatorPass.sol:ValidatorPass",
        "label": "_name",
        "offset": 0,
        "slot": "0",
        "type": "t_string_storage"
      },
      {
        "astId": 2192,
        "contract": "contracts/ValidatorPass.sol:ValidatorPass",
        "label": "_symbol",
        "offset": 0,
        "slot": "1",
        "type": "t_string_storage"
      },
      {
        "astId": 2196,
        "contract": "contracts/ValidatorPass.sol:ValidatorPass",
        "label": "_owners",
        "offset": 0,
        "slot": "2",
        "type": "t_mapping(t_uint256,t_address)"
      },
      {
        "astId": 2200,
        "contract": "contracts/ValidatorPass.sol:ValidatorPass",
        "label": "_balances",
        "offset": 0,
        "slot": "3",
        "type": "t_mapping(t_address,t_uint256)"
      },
      {
        "astId": 2204,
        "contract": "contracts/ValidatorPass.sol:ValidatorPass",
        "label": "_tokenApprovals",
        "offset": 0,
        "slot": "4",
        "type": "t_mapping(t_uint256,t_address)"
      },
      {
        "astId": 2210,
        "contract": "contracts/ValidatorPass.sol:ValidatorPass",
        "label": "_operatorApprovals",
        "offset": 0,
        "slot": "5",
        "type": "t_mapping(t_address,t_mapping(t_address,t_bool))"
      },
      {
        "astId": 88,
        "contract": "contracts/ValidatorPass.sol:ValidatorPass",
        "label": "_roles",
        "offset": 0,
        "slot": "6",
        "type": "t_mapping(t_bytes32,t_struct(RoleData)83_storage)"
      },
      {
        "astId": 10699,
        "contract": "contracts/ValidatorPass.sol:ValidatorPass",
        "label": "metadataUri",
        "offset": 0,
        "slot": "7",
        "type": "t_string_storage"
      },
      {
        "astId": 10701,
        "contract": "contracts/ValidatorPass.sol:ValidatorPass",
        "label": "mintCounter",
        "offset": 0,
        "slot": "8",
        "type": "t_uint256"
      }
    ],
    "types": {
      "t_address": {
        "encoding": "inplace",
        "label": "address",
        "numberOfBytes": "20"
      },
      "t_bool": {
        "encoding": "inplace",
        "label": "bool",
        "numberOfBytes": "1"
      },
      "t_bytes32": {
        "encoding": "inplace",
        "label": "bytes32",
        "numberOfBytes": "32"
      },
      "t_mapping(t_address,t_bool)": {
        "encoding": "mapping",
        "key": "t_address",
        "label": "mapping(address => bool)",
        "numberOfBytes": "32",
        "value": "t_bool"
      },
      "t_mapping(t_address,t_mapping(t_address,t_bool))": {
        "encoding": "mapping",
        "key": "t_address",
        "label": "mapping(address => mapping(address => bool))",
        "numberOfBytes": "32",
        "value": "t_mapping(t_address,t_bool)"
      },
      "t_mapping(t_address,t_uint256)": {
        "encoding": "mapping",
        "key": "t_address",
        "label": "mapping(address => uint256)",
        "numberOfBytes": "32",
        "value": "t_uint256"
      },
      "t_mapping(t_bytes32,t_struct(RoleData)83_storage)": {
        "encoding": "mapping",
        "key": "t_bytes32",
        "label": "mapping(bytes32 => struct AccessControl.RoleData)",
        "numberOfBytes": "32",
        "value": "t_struct(RoleData)83_storage"
      },
      "t_mapping(t_uint256,t_address)": {
        "encoding": "mapping",
        "key": "t_uint256",
        "label": "mapping(uint256 => address)",
        "numberOfBytes": "32",
        "value": "t_address"
      },
      "t_string_storage": {
        "encoding": "bytes",
        "label": "string",
        "numberOfBytes": "32"
      },
      "t_struct(RoleData)83_storage": {
        "encoding": "inplace",
        "label": "struct AccessControl.RoleData",
        "members": [
          {
            "astId": 80,
            "contract": "contracts/ValidatorPass.sol:ValidatorPass",
            "label": "hasRole",
            "offset": 0,
            "slot": "0",
            "type": "t_mapping(t_address,t_bool)"
          },
          {
            "astId": 82,
            "contract": "contracts/ValidatorPass.sol:ValidatorPass",
            "label": "adminRole",
            "offset": 0,
            "slot": "1",
            "type": "t_bytes32"
          }
        ],
        "numberOfBytes": "64"
      },
      "t_uint256": {
        "encoding": "inplace",
        "label": "uint256",
        "numberOfBytes": "32"
      }
    }
  }
}