{
  "address": "0x8c80eC8918fe4A714c36D839f4C43B9048b76bC9",
  "abi": [
    {
      "inputs": [
        {
          "internalType": "contract IERC20MintBurnable",
          "name": "_rewardToken",
          "type": "address"
        },
        {
          "internalType": "contract IERC721",
          "name": "_stakeNFT",
          "type": "address"
        },
        {
          "internalType": "uint256",
          "name": "_tokensPerSecond",
          "type": "uint256"
        },
        {
          "internalType": "address",
          "name": "_admin",
          "type": "address"
        }
      ],
      "stateMutability": "nonpayable",
      "type": "constructor"
    },
    {
      "inputs": [],
      "name": "NFTAlreadyStaked",
      "type": "error"
    },
    {
      "inputs": [],
      "name": "NFTNotStaked",
      "type": "error"
    },
    {
      "inputs": [],
      "name": "NotYourNFT",
      "type": "error"
    },
    {
      "inputs": [],
      "name": "Overflow",
      "type": "error"
    },
    {
      "inputs": [
        {
          "internalType": "address",
          "name": "owner",
          "type": "address"
        }
      ],
      "name": "OwnableInvalidOwner",
      "type": "error"
    },
    {
      "inputs": [
        {
          "internalType": "address",
          "name": "account",
          "type": "address"
        }
      ],
      "name": "OwnableUnauthorizedAccount",
      "type": "error"
    },
    {
      "inputs": [],
      "name": "StakingEndMustBeInTheFuture",
      "type": "error"
    },
    {
      "anonymous": false,
      "inputs": [
        {
          "indexed": true,
          "internalType": "uint256",
          "name": "tokenId",
          "type": "uint256"
        }
      ],
      "name": "NFTStaked",
      "type": "event"
    },
    {
      "anonymous": false,
      "inputs": [
        {
          "indexed": true,
          "internalType": "uint256",
          "name": "tokenId",
          "type": "uint256"
        }
      ],
      "name": "NFTUnstaked",
      "type": "event"
    },
    {
      "anonymous": false,
      "inputs": [
        {
          "indexed": true,
          "internalType": "address",
          "name": "previousOwner",
          "type": "address"
        },
        {
          "indexed": true,
          "internalType": "address",
          "name": "newOwner",
          "type": "address"
        }
      ],
      "name": "OwnershipTransferred",
      "type": "event"
    },
    {
      "anonymous": false,
      "inputs": [
        {
          "indexed": true,
          "internalType": "uint256",
          "name": "tokenId",
          "type": "uint256"
        },
        {
          "indexed": false,
          "internalType": "uint256",
          "name": "tokens",
          "type": "uint256"
        }
      ],
      "name": "TokensClaimed",
      "type": "event"
    },
    {
      "inputs": [
        {
          "internalType": "uint256",
          "name": "_tokenId",
          "type": "uint256"
        }
      ],
      "name": "claim",
      "outputs": [],
      "stateMutability": "nonpayable",
      "type": "function"
    },
    {
      "inputs": [
        {
          "internalType": "uint256",
          "name": "_tokenId",
          "type": "uint256"
        }
      ],
      "name": "claimable",
      "outputs": [
        {
          "internalType": "uint256",
          "name": "claimableTokens",
          "type": "uint256"
        }
      ],
      "stateMutability": "view",
      "type": "function"
    },
    {
      "inputs": [],
      "name": "owner",
      "outputs": [
        {
          "internalType": "address",
          "name": "",
          "type": "address"
        }
      ],
      "stateMutability": "view",
      "type": "function"
    },
    {
      "inputs": [],
      "name": "renounceOwnership",
      "outputs": [],
      "stateMutability": "nonpayable",
      "type": "function"
    },
    {
      "inputs": [],
      "name": "rewardToken",
      "outputs": [
        {
          "internalType": "contract IERC20MintBurnable",
          "name": "",
          "type": "address"
        }
      ],
      "stateMutability": "view",
      "type": "function"
    },
    {
      "inputs": [
        {
          "internalType": "uint64",
          "name": "_stakingOver",
          "type": "uint64"
        }
      ],
      "name": "setStakingEnd",
      "outputs": [],
      "stateMutability": "nonpayable",
      "type": "function"
    },
    {
      "inputs": [
        {
          "internalType": "uint256",
          "name": "_tokenId",
          "type": "uint256"
        }
      ],
      "name": "stake",
      "outputs": [],
      "stateMutability": "nonpayable",
      "type": "function"
    },
    {
      "inputs": [],
      "name": "stakeNFT",
      "outputs": [
        {
          "internalType": "contract IERC721",
          "name": "",
          "type": "address"
        }
      ],
      "stateMutability": "view",
      "type": "function"
    },
    {
      "inputs": [],
      "name": "tokensPerSecond",
      "outputs": [
        {
          "internalType": "uint256",
          "name": "",
          "type": "uint256"
        }
      ],
      "stateMutability": "view",
      "type": "function"
    },
    {
      "inputs": [
        {
          "internalType": "address",
          "name": "newOwner",
          "type": "address"
        }
      ],
      "name": "transferOwnership",
      "outputs": [],
      "stateMutability": "nonpayable",
      "type": "function"
    },
    {
      "inputs": [
        {
          "internalType": "uint256",
          "name": "_tokenId",
          "type": "uint256"
        }
      ],
      "name": "unstake",
      "outputs": [],
      "stateMutability": "nonpayable",
      "type": "function"
    }
  ],
  "transactionHash": "0xbea9642feaacf2b252fbc1c4e79abd4dbb43d665599efe1d11d53eb0a122a82a",
  "args": [
    "0x463BF544e123c8F29af39a9B5D3d140bD4c35214",
    "0xE8bF45b6c30d79eF0A54E6484fd45270E2ACcECd",
    "3858024000000000",
    "0x44DbB18208bBFd976c3351Db1Fa4C6871d503c0E"
  ],
  "numDeployments": 1,
  "solcInputHash": "fc214987acbf61ac0f1b11f573896ca6",
  "bytecode": "0x60e060405260008054600160a01b600160e01b031916600160a01b600160e01b0317905534801561002f57600080fd5b50604051610ddb380380610ddb83398101604081905261004e9161010b565b806001600160a01b03811661007d57604051631e4fbdf760e01b81526000600482015260240160405180910390fd5b610086816100a3565b50506001600160a01b0392831660a052911660c052608052610160565b600080546001600160a01b038381166001600160a01b0319831681178455604051919092169283917f8be0079c531659141344cd1fd0a4f28419497f9722a3daafe3b4186f6b6457e09190a35050565b6001600160a01b038116811461010857600080fd5b50565b6000806000806080858703121561012157600080fd5b845161012c816100f3565b602086015190945061013d816100f3565b604086015160608701519194509250610155816100f3565b939692955090935050565b60805160a05160c051610c226101b9600039600081816101a201528181610257015281816104c801526108650152600081816101ef015261082901526000818161010e0152818161071301526107880152610c226000f3fe608060405234801561001057600080fd5b50600436106100c95760003560e01c80638da5cb5b11610081578063d1d58b251161005b578063d1d58b25146101c4578063f2fde38b146101d7578063f7c618c1146101ea57600080fd5b80638da5cb5b1461014b578063a694fc3a1461018a578063b48509e61461019d57600080fd5b80633e10e551116100b25780633e10e551146100f65780634d8d9e9214610109578063715018a61461014357600080fd5b80632e17de78146100ce578063379607f5146100e3575b600080fd5b6100e16100dc366004610ad2565b610211565b005b6100e16100f1366004610ad2565b610376565b6100e1610104366004610aeb565b6103cf565b6101307f000000000000000000000000000000000000000000000000000000000000000081565b6040519081526020015b60405180910390f35b6100e161046e565b60005473ffffffffffffffffffffffffffffffffffffffff165b60405173ffffffffffffffffffffffffffffffffffffffff909116815260200161013a565b6100e1610198366004610ad2565b610482565b6101657f000000000000000000000000000000000000000000000000000000000000000081565b6101306101d2366004610ad2565b61064a565b6100e16101e5366004610b3e565b6107b1565b6101657f000000000000000000000000000000000000000000000000000000000000000081565b6040517f6352211e00000000000000000000000000000000000000000000000000000000815260048101829052339073ffffffffffffffffffffffffffffffffffffffff7f00000000000000000000000000000000000000000000000000000000000000001690636352211e90602401602060405180830381865afa15801561029e573d6000803e3d6000fd5b505050506040513d601f19601f820116820180604052508101906102c29190610b5b565b73ffffffffffffffffffffffffffffffffffffffff161461030f576040517f4ab4e95e00000000000000000000000000000000000000000000000000000000815260040160405180910390fd5b6103188161081a565b60008181526001602052604080822080547fffffffffffffffffffffffffffffffffffffffffffffffff00000000000000001690555182917f16700825aa6607ffefaeb83e81057f12d39f973a5e078e2b5244155224c56b8a91a250565b61037f8161081a565b610388426109c2565b60009182526001602052604090912080547fffffffffffffffffffffffffffffffffffffffffffffffff00000000000000001667ffffffffffffffff909216919091179055565b6103d7610a0a565b8067ffffffffffffffff1642111561041b576040517fe00c687700000000000000000000000000000000000000000000000000000000815260040160405180910390fd5b6000805467ffffffffffffffff90921674010000000000000000000000000000000000000000027fffffffff0000000000000000ffffffffffffffffffffffffffffffffffffffff909216919091179055565b610476610a0a565b6104806000610a5d565b565b6040517f6352211e00000000000000000000000000000000000000000000000000000000815260048101829052339073ffffffffffffffffffffffffffffffffffffffff7f00000000000000000000000000000000000000000000000000000000000000001690636352211e90602401602060405180830381865afa15801561050f573d6000803e3d6000fd5b505050506040513d601f19601f820116820180604052508101906105339190610b5b565b73ffffffffffffffffffffffffffffffffffffffff1614610580576040517f4ab4e95e00000000000000000000000000000000000000000000000000000000815260040160405180910390fd5b60008181526001602052604090205467ffffffffffffffff16156105d0576040517f9c96118800000000000000000000000000000000000000000000000000000000815260040160405180910390fd5b6105d9426109c2565b60008281526001602052604080822080547fffffffffffffffffffffffffffffffffffffffffffffffff00000000000000001667ffffffffffffffff9490941693909317909255905182917f11658f9285ec73fac1515f3a09966dcad7880f985e458acc3c41ac5cb98fc4e891a250565b600080610656426109c2565b60008481526001602052604081205491925067ffffffffffffffff909116908190036106ae576040517fda70723f00000000000000000000000000000000000000000000000000000000815260040160405180910390fd5b60005467ffffffffffffffff74010000000000000000000000000000000000000000909104811690831611156107865760005467ffffffffffffffff740100000000000000000000000000000000000000009091048116908216101561077c576000547f00000000000000000000000000000000000000000000000000000000000000009061076090839074010000000000000000000000000000000000000000900467ffffffffffffffff16610ba7565b67ffffffffffffffff166107749190610bcf565b949350505050565b5060009392505050565b7f00000000000000000000000000000000000000000000000000000000000000006107608284610ba7565b6107b9610a0a565b73ffffffffffffffffffffffffffffffffffffffff811661080e576040517f1e4fbdf7000000000000000000000000000000000000000000000000000000008152600060048201526024015b60405180910390fd5b61081781610a5d565b50565b60006108258261064a565b90507f000000000000000000000000000000000000000000000000000000000000000073ffffffffffffffffffffffffffffffffffffffff166340c10f197f000000000000000000000000000000000000000000000000000000000000000073ffffffffffffffffffffffffffffffffffffffff16636352211e856040518263ffffffff1660e01b81526004016108be91815260200190565b602060405180830381865afa1580156108db573d6000803e3d6000fd5b505050506040513d601f19601f820116820180604052508101906108ff9190610b5b565b6040517fffffffff0000000000000000000000000000000000000000000000000000000060e084901b16815273ffffffffffffffffffffffffffffffffffffffff909116600482015260248101849052604401600060405180830381600087803b15801561096c57600080fd5b505af1158015610980573d6000803e3d6000fd5b50505050817fbde2d72390af9d0444bb1c4f938971ecb673ed26f5f57f8fa44c553fe01d0d3a826040516109b691815260200190565b60405180910390a25050565b600067ffffffffffffffff821115610a06576040517f35278d1200000000000000000000000000000000000000000000000000000000815260040160405180910390fd5b5090565b60005473ffffffffffffffffffffffffffffffffffffffff163314610480576040517f118cdaa7000000000000000000000000000000000000000000000000000000008152336004820152602401610805565b6000805473ffffffffffffffffffffffffffffffffffffffff8381167fffffffffffffffffffffffff0000000000000000000000000000000000000000831681178455604051919092169283917f8be0079c531659141344cd1fd0a4f28419497f9722a3daafe3b4186f6b6457e09190a35050565b600060208284031215610ae457600080fd5b5035919050565b600060208284031215610afd57600080fd5b813567ffffffffffffffff81168114610b1557600080fd5b9392505050565b73ffffffffffffffffffffffffffffffffffffffff8116811461081757600080fd5b600060208284031215610b5057600080fd5b8135610b1581610b1c565b600060208284031215610b6d57600080fd5b8151610b1581610b1c565b7f4e487b7100000000000000000000000000000000000000000000000000000000600052601160045260246000fd5b67ffffffffffffffff828116828216039080821115610bc857610bc8610b78565b5092915050565b8082028115828204841417610be657610be6610b78565b9291505056fea2646970667358221220fdd6afed4c361d591bfe6688e43d283eafee46e3f1327ee82f0e5689ce30a29664736f6c63430008170033",
  "devdoc": {
    "errors": {
      "OwnableInvalidOwner(address)": [
        {
          "details": "The owner is not a valid owner account. (eg. `address(0)`)"
        }
      ],
      "OwnableUnauthorizedAccount(address)": [
        {
          "details": "The caller account is not authorized to perform an operation."
        }
      ]
    },
    "kind": "dev",
    "methods": {
      "claim(uint256)": {
        "params": {
          "_tokenId": "The id of the NFT to claim tokens for."
        }
      },
      "claimable(uint256)": {
        "params": {
          "_tokenId": "The id of the NFT to check claimable tokens."
        }
      },
      "owner()": {
        "details": "Returns the address of the current owner."
      },
      "renounceOwnership()": {
        "details": "Leaves the contract without owner. It will not be possible to call `onlyOwner` functions. Can only be called by the current owner. NOTE: Renouncing ownership will leave the contract without an owner, thereby disabling any functionality that is only available to the owner."
      },
      "setStakingEnd(uint64)": {
        "params": {
          "_stakingOver": "The enddate."
        }
      },
      "stake(uint256)": {
        "params": {
          "_tokenId": "The id of the NFT to stake."
        }
      },
      "transferOwnership(address)": {
        "details": "Transfers ownership of the contract to a new account (`newOwner`). Can only be called by the current owner."
      },
      "unstake(uint256)": {
        "params": {
          "_tokenId": "The id of the NFT to unstake."
        }
      }
    },
    "version": 1
  },
  "userdoc": {
    "kind": "user",
    "methods": {
      "claim(uint256)": {
        "notice": "Claims all claimable tokens.Can be called by any wallet, but tokens will be claimed to NFT owner."
      },
      "claimable(uint256)": {
        "notice": "Checks how much tokens are claimable."
      },
      "setStakingEnd(uint64)": {
        "notice": "Set enddate for rewards. No new rewards are stacked up after this date.Rewards stacked up until this date can still be claimed."
      },
      "stake(uint256)": {
        "notice": "Stakes your NFT."
      },
      "unstake(uint256)": {
        "notice": "Unstakes your NFT."
      }
    },
    "version": 1
  },
  "storageLayout": {
    "storage": [
      {
        "astId": 8,
        "contract": "contracts/VerifiedContributorStaking.sol:VerifiedContributorStaking",
        "label": "_owner",
        "offset": 0,
        "slot": "0",
        "type": "t_address"
      },
      {
        "astId": 3128,
        "contract": "contracts/VerifiedContributorStaking.sol:VerifiedContributorStaking",
        "label": "stakingOver",
        "offset": 20,
        "slot": "0",
        "type": "t_uint64"
      },
      {
        "astId": 3132,
        "contract": "contracts/VerifiedContributorStaking.sol:VerifiedContributorStaking",
        "label": "lastClaim",
        "offset": 0,
        "slot": "1",
        "type": "t_mapping(t_uint256,t_uint64)"
      }
    ],
    "types": {
      "t_address": {
        "encoding": "inplace",
        "label": "address",
        "numberOfBytes": "20"
      },
      "t_mapping(t_uint256,t_uint64)": {
        "encoding": "mapping",
        "key": "t_uint256",
        "label": "mapping(uint256 => uint64)",
        "numberOfBytes": "32",
        "value": "t_uint64"
      },
      "t_uint256": {
        "encoding": "inplace",
        "label": "uint256",
        "numberOfBytes": "32"
      },
      "t_uint64": {
        "encoding": "inplace",
        "label": "uint64",
        "numberOfBytes": "8"
      }
    }
  }
}