{
  "address": "0x8F0749708fA011343e366713966612236640c4B8",
  "abi": [
    {
      "inputs": [
        {
          "internalType": "contract IERC20MintBurnable",
          "name": "_rewardToken",
          "type": "address"
        },
        {
          "internalType": "contract IERC721",
          "name": "_stakeNFT",
          "type": "address"
        },
        {
          "internalType": "uint256",
          "name": "_tokensPerSecond",
          "type": "uint256"
        },
        {
          "internalType": "address",
          "name": "_admin",
          "type": "address"
        }
      ],
      "stateMutability": "nonpayable",
      "type": "constructor"
    },
    {
      "inputs": [],
      "name": "NFTAlreadyStaked",
      "type": "error"
    },
    {
      "inputs": [],
      "name": "NFTNotStaked",
      "type": "error"
    },
    {
      "inputs": [],
      "name": "NotYourNFT",
      "type": "error"
    },
    {
      "inputs": [],
      "name": "Overflow",
      "type": "error"
    },
    {
      "inputs": [
        {
          "internalType": "address",
          "name": "owner",
          "type": "address"
        }
      ],
      "name": "OwnableInvalidOwner",
      "type": "error"
    },
    {
      "inputs": [
        {
          "internalType": "address",
          "name": "account",
          "type": "address"
        }
      ],
      "name": "OwnableUnauthorizedAccount",
      "type": "error"
    },
    {
      "inputs": [],
      "name": "StakingEndMustBeInTheFuture",
      "type": "error"
    },
    {
      "anonymous": false,
      "inputs": [
        {
          "indexed": true,
          "internalType": "address",
          "name": "previousOwner",
          "type": "address"
        },
        {
          "indexed": true,
          "internalType": "address",
          "name": "newOwner",
          "type": "address"
        }
      ],
      "name": "OwnershipTransferred",
      "type": "event"
    },
    {
      "inputs": [
        {
          "internalType": "uint256",
          "name": "_tokenId",
          "type": "uint256"
        }
      ],
      "name": "claim",
      "outputs": [],
      "stateMutability": "nonpayable",
      "type": "function"
    },
    {
      "inputs": [
        {
          "internalType": "uint256",
          "name": "_tokenId",
          "type": "uint256"
        }
      ],
      "name": "claimable",
      "outputs": [
        {
          "internalType": "uint256",
          "name": "claimableTokens",
          "type": "uint256"
        }
      ],
      "stateMutability": "view",
      "type": "function"
    },
    {
      "inputs": [],
      "name": "owner",
      "outputs": [
        {
          "internalType": "address",
          "name": "",
          "type": "address"
        }
      ],
      "stateMutability": "view",
      "type": "function"
    },
    {
      "inputs": [],
      "name": "renounceOwnership",
      "outputs": [],
      "stateMutability": "nonpayable",
      "type": "function"
    },
    {
      "inputs": [],
      "name": "rewardToken",
      "outputs": [
        {
          "internalType": "contract IERC20MintBurnable",
          "name": "",
          "type": "address"
        }
      ],
      "stateMutability": "view",
      "type": "function"
    },
    {
      "inputs": [
        {
          "internalType": "uint64",
          "name": "_stakingOver",
          "type": "uint64"
        }
      ],
      "name": "setStakingEnd",
      "outputs": [],
      "stateMutability": "nonpayable",
      "type": "function"
    },
    {
      "inputs": [
        {
          "internalType": "uint256",
          "name": "_tokenId",
          "type": "uint256"
        }
      ],
      "name": "stake",
      "outputs": [],
      "stateMutability": "nonpayable",
      "type": "function"
    },
    {
      "inputs": [],
      "name": "stakeNFT",
      "outputs": [
        {
          "internalType": "contract IERC721",
          "name": "",
          "type": "address"
        }
      ],
      "stateMutability": "view",
      "type": "function"
    },
    {
      "inputs": [],
      "name": "tokensPerSecond",
      "outputs": [
        {
          "internalType": "uint256",
          "name": "",
          "type": "uint256"
        }
      ],
      "stateMutability": "view",
      "type": "function"
    },
    {
      "inputs": [
        {
          "internalType": "address",
          "name": "newOwner",
          "type": "address"
        }
      ],
      "name": "transferOwnership",
      "outputs": [],
      "stateMutability": "nonpayable",
      "type": "function"
    },
    {
      "inputs": [
        {
          "internalType": "uint256",
          "name": "_tokenId",
          "type": "uint256"
        }
      ],
      "name": "unstake",
      "outputs": [],
      "stateMutability": "nonpayable",
      "type": "function"
    }
  ],
  "transactionHash": "0x98d48f9d61e4f9b8a1bc0a965e182f24e470165fb01249c451b45eb29f75198a",
  "args": [
    "0x9524c3dF8B40fbD55Eff4c6e48E4386B0Ec114F9",
    "0xD6cB52d72c6F849b24b1228f1c16FE60F68E5177",
    "3858024000000000",
    "0x44DbB18208bBFd976c3351Db1Fa4C6871d503c0E"
  ],
  "numDeployments": 1,
  "solcInputHash": "9b4aa24c3c6a845a3f4d806135a61042",
  "bytecode": "0x60e060405260008054600160a01b600160e01b031916600160a01b600160e01b0317905534801561002f57600080fd5b50604051610cf9380380610cf983398101604081905261004e9161010b565b806001600160a01b03811661007d57604051631e4fbdf760e01b81526000600482015260240160405180910390fd5b610086816100a3565b50506001600160a01b0392831660a052911660c052608052610160565b600080546001600160a01b038381166001600160a01b0319831681178455604051919092169283917f8be0079c531659141344cd1fd0a4f28419497f9722a3daafe3b4186f6b6457e09190a35050565b6001600160a01b038116811461010857600080fd5b50565b6000806000806080858703121561012157600080fd5b845161012c816100f3565b602086015190945061013d816100f3565b604086015160608701519194509250610155816100f3565b939692955090935050565b60805160a05160c051610b406101b9600039600081816101a201528181610257015281816104a001526107e60152600081816101ef01526107bc01526000818161010e0152818161067101526106e60152610b406000f3fe608060405234801561001057600080fd5b50600436106100c95760003560e01c80638da5cb5b11610081578063d1d58b251161005b578063d1d58b25146101c4578063f2fde38b146101d7578063f7c618c1146101ea57600080fd5b80638da5cb5b1461014b578063a694fc3a1461018a578063b48509e61461019d57600080fd5b80633e10e551116100b25780633e10e551146100f65780634d8d9e9214610109578063715018a61461014357600080fd5b80632e17de78146100ce578063379607f5146100e3575b600080fd5b6100e16100dc3660046109f0565b610211565b005b6100e16100f13660046109f0565b61034e565b6100e1610104366004610a09565b6103a7565b6101307f000000000000000000000000000000000000000000000000000000000000000081565b6040519081526020015b60405180910390f35b6100e1610446565b60005473ffffffffffffffffffffffffffffffffffffffff165b60405173ffffffffffffffffffffffffffffffffffffffff909116815260200161013a565b6100e16101983660046109f0565b61045a565b6101657f000000000000000000000000000000000000000000000000000000000000000081565b6101306101d23660046109f0565b6105a8565b6100e16101e5366004610a5c565b61070f565b6101657f000000000000000000000000000000000000000000000000000000000000000081565b6040517f6352211e00000000000000000000000000000000000000000000000000000000815260048101829052339073ffffffffffffffffffffffffffffffffffffffff7f00000000000000000000000000000000000000000000000000000000000000001690636352211e90602401602060405180830381865afa15801561029e573d6000803e3d6000fd5b505050506040513d601f19601f820116820180604052508101906102c29190610a79565b73ffffffffffffffffffffffffffffffffffffffff161461030f576040517f4ab4e95e00000000000000000000000000000000000000000000000000000000815260040160405180910390fd5b61031881610778565b600090815260016020526040902080547fffffffffffffffffffffffffffffffffffffffffffffffff0000000000000000169055565b61035781610778565b610360426108e0565b60009182526001602052604090912080547fffffffffffffffffffffffffffffffffffffffffffffffff00000000000000001667ffffffffffffffff909216919091179055565b6103af610928565b8067ffffffffffffffff164211156103f3576040517fe00c687700000000000000000000000000000000000000000000000000000000815260040160405180910390fd5b6000805467ffffffffffffffff90921674010000000000000000000000000000000000000000027fffffffff0000000000000000ffffffffffffffffffffffffffffffffffffffff909216919091179055565b61044e610928565b610458600061097b565b565b6040517f6352211e00000000000000000000000000000000000000000000000000000000815260048101829052339073ffffffffffffffffffffffffffffffffffffffff7f00000000000000000000000000000000000000000000000000000000000000001690636352211e90602401602060405180830381865afa1580156104e7573d6000803e3d6000fd5b505050506040513d601f19601f8201168201806040525081019061050b9190610a79565b73ffffffffffffffffffffffffffffffffffffffff1614610558576040517f4ab4e95e00000000000000000000000000000000000000000000000000000000815260040160405180910390fd5b60008181526001602052604090205467ffffffffffffffff1615610357576040517f9c96118800000000000000000000000000000000000000000000000000000000815260040160405180910390fd5b6000806105b4426108e0565b60008481526001602052604081205491925067ffffffffffffffff9091169081900361060c576040517fda70723f00000000000000000000000000000000000000000000000000000000815260040160405180910390fd5b60005467ffffffffffffffff74010000000000000000000000000000000000000000909104811690831611156106e45760005467ffffffffffffffff74010000000000000000000000000000000000000000909104811690821610156106da576000547f0000000000000000000000000000000000000000000000000000000000000000906106be90839074010000000000000000000000000000000000000000900467ffffffffffffffff16610ac5565b67ffffffffffffffff166106d29190610aed565b949350505050565b5060009392505050565b7f00000000000000000000000000000000000000000000000000000000000000006106be8284610ac5565b610717610928565b73ffffffffffffffffffffffffffffffffffffffff811661076c576040517f1e4fbdf7000000000000000000000000000000000000000000000000000000008152600060048201526024015b60405180910390fd5b6107758161097b565b50565b6040517f6352211e0000000000000000000000000000000000000000000000000000000081526004810182905273ffffffffffffffffffffffffffffffffffffffff7f00000000000000000000000000000000000000000000000000000000000000008116916340c10f19917f00000000000000000000000000000000000000000000000000000000000000001690636352211e90602401602060405180830381865afa15801561082d573d6000803e3d6000fd5b505050506040513d601f19601f820116820180604052508101906108519190610a79565b61085a846105a8565b6040517fffffffff0000000000000000000000000000000000000000000000000000000060e085901b16815273ffffffffffffffffffffffffffffffffffffffff90921660048301526024820152604401600060405180830381600087803b1580156108c557600080fd5b505af11580156108d9573d6000803e3d6000fd5b5050505050565b600067ffffffffffffffff821115610924576040517f35278d1200000000000000000000000000000000000000000000000000000000815260040160405180910390fd5b5090565b60005473ffffffffffffffffffffffffffffffffffffffff163314610458576040517f118cdaa7000000000000000000000000000000000000000000000000000000008152336004820152602401610763565b6000805473ffffffffffffffffffffffffffffffffffffffff8381167fffffffffffffffffffffffff0000000000000000000000000000000000000000831681178455604051919092169283917f8be0079c531659141344cd1fd0a4f28419497f9722a3daafe3b4186f6b6457e09190a35050565b600060208284031215610a0257600080fd5b5035919050565b600060208284031215610a1b57600080fd5b813567ffffffffffffffff81168114610a3357600080fd5b9392505050565b73ffffffffffffffffffffffffffffffffffffffff8116811461077557600080fd5b600060208284031215610a6e57600080fd5b8135610a3381610a3a565b600060208284031215610a8b57600080fd5b8151610a3381610a3a565b7f4e487b7100000000000000000000000000000000000000000000000000000000600052601160045260246000fd5b67ffffffffffffffff828116828216039080821115610ae657610ae6610a96565b5092915050565b8082028115828204841417610b0457610b04610a96565b9291505056fea26469706673582212208c29e7fca037a75f151ff33b40b688c544be23ca212982766de2ae45ef54e93364736f6c63430008170033",
  "devdoc": {
    "errors": {
      "OwnableInvalidOwner(address)": [
        {
          "details": "The owner is not a valid owner account. (eg. `address(0)`)"
        }
      ],
      "OwnableUnauthorizedAccount(address)": [
        {
          "details": "The caller account is not authorized to perform an operation."
        }
      ]
    },
    "kind": "dev",
    "methods": {
      "claim(uint256)": {
        "params": {
          "_tokenId": "The id of the NFT to claim tokens for."
        }
      },
      "claimable(uint256)": {
        "params": {
          "_tokenId": "The id of the NFT to check claimable tokens."
        }
      },
      "owner()": {
        "details": "Returns the address of the current owner."
      },
      "renounceOwnership()": {
        "details": "Leaves the contract without owner. It will not be possible to call `onlyOwner` functions. Can only be called by the current owner. NOTE: Renouncing ownership will leave the contract without an owner, thereby disabling any functionality that is only available to the owner."
      },
      "setStakingEnd(uint64)": {
        "params": {
          "_stakingOver": "The enddate."
        }
      },
      "stake(uint256)": {
        "params": {
          "_tokenId": "The id of the NFT to stake."
        }
      },
      "transferOwnership(address)": {
        "details": "Transfers ownership of the contract to a new account (`newOwner`). Can only be called by the current owner."
      },
      "unstake(uint256)": {
        "params": {
          "_tokenId": "The id of the NFT to unstake."
        }
      }
    },
    "version": 1
  },
  "userdoc": {
    "kind": "user",
    "methods": {
      "claim(uint256)": {
        "notice": "Claims all claimable tokens.Can be called by any wallet, but tokens will be claimed to NFT owner."
      },
      "claimable(uint256)": {
        "notice": "Checks how much tokens are claimable."
      },
      "setStakingEnd(uint64)": {
        "notice": "Set enddate for rewards. No new rewards are stacked up after this date.Rewards stacked up until this date can still be claimed."
      },
      "stake(uint256)": {
        "notice": "Stakes your NFT."
      },
      "unstake(uint256)": {
        "notice": "Unstakes your NFT."
      }
    },
    "version": 1
  },
  "storageLayout": {
    "storage": [
      {
        "astId": 387,
        "contract": "contracts/VerifiedContributorStaking.sol:VerifiedContributorStaking",
        "label": "_owner",
        "offset": 0,
        "slot": "0",
        "type": "t_address"
      },
      {
        "astId": 10787,
        "contract": "contracts/VerifiedContributorStaking.sol:VerifiedContributorStaking",
        "label": "stakingOver",
        "offset": 20,
        "slot": "0",
        "type": "t_uint64"
      },
      {
        "astId": 10791,
        "contract": "contracts/VerifiedContributorStaking.sol:VerifiedContributorStaking",
        "label": "lastClaim",
        "offset": 0,
        "slot": "1",
        "type": "t_mapping(t_uint256,t_uint64)"
      }
    ],
    "types": {
      "t_address": {
        "encoding": "inplace",
        "label": "address",
        "numberOfBytes": "20"
      },
      "t_mapping(t_uint256,t_uint64)": {
        "encoding": "mapping",
        "key": "t_uint256",
        "label": "mapping(uint256 => uint64)",
        "numberOfBytes": "32",
        "value": "t_uint64"
      },
      "t_uint256": {
        "encoding": "inplace",
        "label": "uint256",
        "numberOfBytes": "32"
      },
      "t_uint64": {
        "encoding": "inplace",
        "label": "uint64",
        "numberOfBytes": "8"
      }
    }
  }
}